:100000000C948A120C94B2120C94B2120C94B21288
:100010000C94B2120C94B2120C94B2120C94B21250
:100020000C94B2120C94B2120C9491200C940021F6
:100030000C94B2120C94B2120C94B2120C94B21230
:100040000C94B2120C94B2120C94B2120C94B21220
:100050000C94B2120C94B2120C94B2120C9432237F
:100060000C94B2120C94B2120C94B2120C94B21200
:100070000C94B2120C94B2120C94B2120C94B212F0
:100080000C947C230C94B2120C94B2120C94B21205
:100090000C94B2120C94B2120C94B2120C94B212D0
:1000A0000C94B2120C94B2120C94B212163F162099
:1000B00070F87CFEFFFEFFFFFFFFFFFFFEFFFE7CF0
:1000C000F8702000000000070F1F1F1F1F1F1F1FB9
:1000D0001F0F07000000000C1E3E3FFFFFFEFFFF4A
:1000E000FFFFFFFFFEFFFF3F3E1E0C00000000076A
:1000F0000F1F1F1F1F1F1F1F1F0F070000000020C3
:1001000070F87CFEFFFEFFFFFFFFFFFFFEFFFE7C9F
:10011000F8702000000000070F1F1F1F1F1F1F1F68
:100120001F0F07000000000C1E3E3FFFFFFEFFFFF9
:10013000FFFFFFFFFEFFFF3F3E1E0C000000000719
:100140000F1F1F1F1F1F1F1F1F0F07000000000092
:1001500000002070F8702000000000000000000087
:1001600000000000000000A8FCF8FCF8FCA800005B
:1001700000000001000100010000000024FE74AC3A
:10018000DEAC74FE24000001030101030101030140
:1001900000227772200207022072772202070200F3
:1001A0000207020002070222777220020702207271
:1001B0007722020702000207020002070240E0E085
:1001C000F0E4EEFEFFFEEEE4F0E0E040FAFFFFFFB9
:1001D000FFFF7FFF7FFFFFFFFFFFFAC1FFFFFFFE73
:1001E000FEFFFFFFFEFEFFFFFFC10307070F1F1FFC
:1001F0003F3F3F1F1F0F07070320F0E8FC28F0FEDA
:10020000FFFEF028FC28F020F9FFF96E297FFFFFA0
:10021000FF7F296EF9FFF9C0F9FEFFFEFEFFFFFF29
:10022000FEFEFFFEF9C00307070F1F1F3F3F3F1FE2
:100230001F0F07070370F8FCFEFFFFFFFEFEFFFF26
:10024000FFFEFCF87000000103070F1F3F3F1F0F68
:10025000070301000070F8FCFEFFFFFFFEFEFFFF3A
:10026000FFFEFCF87000000103070F1F3F3F1F0F48
:10027000070301000070F8FCFEFFFFFFFEFEFFFF1A
:10028000FFFEFCF87000000103070F1F3F3F1F0F28
:10029000070301000070F8FCFEFFFFFFFEFEFFFFFA
:1002A000FFFEFCF87000000103070F1F3F3F1F0F08
:1002B00007030100000306001600140D2050A85487
:1002C000BA1DFA05F505050505FA1DBA54A8502012
:1002D0000000000007081714151515151417080756
:1002E000000000000C122A2DDD1DFA05F50505059C
:1002F00005FA1DDD2D2A120C000000000708171456
:10030000151515151417080700000000140D2050CE
:10031000A854BA1DFA05F555551505FA1DBA54A885
:1003200050200000000007081714151414141417A7
:100330000807000000000C122A2DDD1DFA05F555F6
:10034000551505FA1DDD2D2A120C000000000708C6
:1003500017141514141414170807000000000B0BD1
:1003600000000000207020000000000000000000DD
:10037000000000000000000000A820D820A8000015
:100380000000000000000000000000000000242029
:10039000008C00202400000000010000010000018A
:1003A00000000022200000020000202200000200C5
:1003B00000000200000002000022200000020000F5
:1003C00020220000020000000200000002000F1EB8
:1003D000004000E0004400FE004400E00040000057
:1003E000FA00FF0052007F005200FF00FA0000C137
:1003F00078EE84D46E3F6ED484EE78C1000003039F
:10040000060B0D1D1D1D0D0B06030300002000E84B
:10041000002000FE002000E800200000F9006E002F
:1004200029007F0029006E00F90000C078EE84D416
:100430006E3F6ED484EE78C000000303060B0915EE
:100440001515090B06030300100E0070E8B4BAEE90
:1004500006FC0CF60EFA748870000000000102071A
:100460000C17160D0603010000000070E8B4BAEE88
:1004700006FC0CF60EFA74887000000000010207FA
:100480000C17160D0603010000000070E8B4BAEE68
:1004900006FC0CF60EFA74887000000000010207DA
:1004A0000C17160D0603010000000070E8B4BAEE48
:1004B00006FC0CF60EFA74887000000000010207BA
:1004C0000C17160D060301000000804055AA55AA1E
:1004D00055AA55AA55AA55AA55AA55AA55AA55AA24
:1004E00055AA55AA55AA55A852A508F00000000023
:1004F00000000000000000000000000000000000FC
:1005000000000000000000000000000000000000EB
:1005100000000000000000000000000000000000DB
:1005200000000000000000000000000000F00BA42C
:1005300051AA55AA55AA55AA55AA55AA55AA55AAC7
:1005400055AA55AA55AA55AA55AA55AA55AA55AAB3
:1005500055AA55AA55AA55AA55AA55AA55AA55AAA3
:1005600055AA55AA55AA55AA017C8201000000008F
:100570000000000000000200000000000000000079
:100580000008000000000000000000000000000063
:10059000000000000000000000000000000000005B
:1005A00000100000000000020020000000C12E909A
:1005B00045AA55AA55AA55AA55AA55AA55AA55AA53
:1005C00055AA55AA55AA55AA55AA55AA55AA55AA33
:1005D00055AA55AA55AA55AA55AA55AA55AA55AA23
:1005E00055AA55AA55AA5582394483000000000037
:1005F00020000000000100000000000000000008D2
:1006000000000000000000000000000000000000EA
:100610000000004000000100000000000000000198
:10062000000000000400000000000000000708F2C5
:1006300005AA55AA55AA55AA55AA55AA55AA55AA12
:1006400055AA55AA55AA55AA55AA55AA55AA55AAB2
:1006500055AA55AA55AA55AA55AA55AA55AA55AAA2
:1006600055AA55AA55AA55A24914E3000000000056
:1006700000000000000000000000008000000000FA
:10068000000000000000000000000000000000006A
:100690000000000000000000000001000000000059
:1006A00000000004000000000000000000C03887C7
:1006B00050AA55AA55AA55AA55AA55AA55AA55AA47
:1006C00055AA55AA55AA55AA55AA55AA55AA55AA32
:1006D00055AA55AA55AA55AA55AA55AA55AA55AA22
:1006E00055AA55AA55AA550AE11C030000000000AE
:1006F00000000000000000000000000000000000FA
:1007000000000000000000000000200000000000C9
:100710008000000000000000000000000000000059
:1007200080000000000000000000000000C72892C8
:1007300045AA55AA55AA55AA55AA55AA55AA55AAD1
:1007400055AA55AA55AA55AA55AA55AA55AA55AAB1
:1007500055AA55AA55AA55AA55AA55AA55AA55AAA1
:1007600055AA55AA55AA55A04F10E0000000000058
:100770000000040000000000000000000000000075
:100780000000000000000000000000000000000069
:100790000000000008000000000000000000000051
:1007A00000000000000000000000000000C1229CCA
:1007B00041AA55AA55AA55AA55AA55AA55AA55AA55
:1007C00055AA55AA55AA55AA55AA55AA55AA55AA31
:1007D00055AA55AA55AA55AA55AA55AA55AA55AA21
:1007E00055AA55AA55AA55A2097483000000000015
:1007F00000000000080000000040000004000000AD
:1008000000000000000000000000000000000000E8
:1008100000000000000000020000000000000000D6
:1008200000000000000020000000000080413E8029
:1008300055AA55AA55AA55AA55AA55AA55AA55AAC0
:1008400055AA55AA55AA55AA55AA55AA55AA55AAB0
:1008500055AA55AA55AA55AA55AA55AA55AA55AAA0
:1008600055AA55AA55AA558A25D00F0000000000A8
:100870000000000000000010000000000000000068
:100880000000000000000000000000000000000068
:100890000000000000000200000000000000000056
:1008A0000000001000000000000000000F10A54A2A
:1008B00015AA55AA55AA55AA55AA55AA55AA55AA80
:1008C00055AA55AA55AA55AA55AA55AA000000002E
:1008D0000080E7FFFFFFFFFFFFFFFFFFFFFFFFFFBE
:1008E000FFFFFFFFFF0080C0E0F7FFFFFFFFFFFFFC
:1008F000FFFFFFFFFFFFFFFFFFFFFFFFFFFF0007FF
:100900000F1F3F7FFFFFFFFFFFFFFFFFFFFFFFFF07
:10091000FFFFFFFFFFFFFF0000F0FCFEFFFFFFFFF8
:10092000FFFFFFFFFFFFFFFFFFFFFFFFFFFFFFFFD7
:1009300000001F7FFFFFFFFFFFFFFFFFFFFFFFFF25
:10094000FFFFFFFFFFFFFFFFFF000000E0F1FBFFE5
:10095000FFFFFFFFFFFFFFFFFFFFFFFFFFFFFFFFA7
:10096000FFFF0000000001E3F7FFFFFFFFFFFFFFB5
:10097000FFFFFFFFFFFFFFFFFFFFFF000000000082
:100980000187DFFFFFFFFFFFFFFFFFFFFFFFFFFF0D
:10099000FFFFFFFF194000000000000080E7FBFDA3
:1009A000FDFEFEFFFFFFFFFFFFFFFFFFFFFFFF005A
:1009B0000080C0E0F7FBFBFFFFFFFFFFFFFFFFFF33
:1009C000FFFFFFFFFFFFFFFF0000070F1F3F7FBF7D
:1009D000BFFFFFFFFFFFFFFFFFFFFFFFFFFFFFFF67
:1009E000FF000000F0FCFEFFFFFFFFFFFFFFFFFF27
:1009F000FFFFFFFFFFFFFFFFFFFF0000001F7FFF64
:100A0000FFFFFFFFFFFFFFFFFFFFFFFFFFFFFFFFF6
:100A1000FFFFFF00000000E0F1FBF7F7EFFFFFFF33
:100A2000FFFFFFFFFFFFFFFFFFFFFFFF00000000D2
:100A30000001E3F3FDFFFFFFFFFFFFFFFFFFFFFFED
:100A4000FFFFFFFFFF0000000000000187DFBFBFC6
:100A50007F7FFFFFFFFFFFFFFFFFFFFFFFFFFFFFA6
:100A6000FFFFFFFFFFFFFFFFFFFFFFFFFFFFFFFB9A
:100A7000E1800000000000FFFFFFFFFFFFFFFFFF1E
:100A8000FFFFFFFFFFFFFFFFFFEFC7800000000039
:100A9000FFFFFFFFFFFFFFFFFFFFFFFFFFFFFFFF66
:100AA000FFFFFFDF8F07000000FFFFFFFFFFFFFFDB
:100AB000FFFFFFFFFFFFFFFFFFFFFFFFFFFFFEF84E
:100AC0000000FFFFFFFFFFFFFFFFFFFFFFFFFFFF34
:100AD000FFFFFFFFFFFF7F3F0F0000FFFFFFFFFF54
:100AE000FFFFFFFFFFFFFFFFFFFFFFFFFFFFFEFC1A
:100AF000F8F0E000FFFFFFFFFFFFFFFFFFFFFFFF3A
:100B0000FFFFFFFFFFFFFFFFEF07030100FFFFFFF6
:100B1000FFFFFFFFFFFFFFFFFFFFFFFFFFFFFFE7FD
:100B20000100000000001940FFFFFFFFFFFFFFFF73
:100B3000FFFFFFFFFEFEFDFDFBE180000000000067
:100B400000FFFFFFFFFFFFFFFFFFFFFFFFFFFFFFB4
:100B5000FFBFCFC7800000000000FFFFFFFFFFFFC7
:100B6000FFFFFFFFFFFFFFFFFFF7EFEFDF8F070044
:100B7000000000FFFFFFFFFFFFFFFFFFFFFFFFFF82
:100B8000FFFFFFFFFFFFFFFEF8000000FFFFFFFF7A
:100B9000FFFFFFFFFFFFFFFFFFFFFFFFFFFFFF7FE5
:100BA0003F0F000000FFFFFFFFFFFFFFFFFFFFFF02
:100BB000FFFFFFFFFFFDFDFEFCF8F0E00000FFFF80
:100BC000FFFFFFFFFFFFFFFFFFFFFFFFFFFFFFDF55
:100BD000DFEF0703010000FFFFFFFFFFFFFFFFFF45
:100BE000FFFFFF7F7FBFBFDFE701000000000000C5
:100BF000804055AA55AA55AA55AA55AA55AA55AA3C
:100C000055AA55AA55AA55AA55AA55AA55A852A5F6
:100C100008F00000000020000000000000000000BC
:100C200000000000000020000000000000000000A4
:100C300000280000000000000000E00000000000AC
:100C4000000000000000E8000000000000000000BC
:100C5000000000F00BA451AA55AA55AA55AA55AAFE
:100C600055AA55AA55AA55AA55AA55AA55AA55AA8C
:100C700055AA55AA55AA55AA55AA55AA55AA55AA7C
:100C800055AA55AA55AA55AA55AA55AA55AA017CEE
:100C9000820100000000FF00000000900000000042
:100CA000000000000000FF0000000000F000000055
:100CB00000008000000000000000FF0000000000B5
:100CC00000F8000000000F00000000000000FD0020
:100CD000000000C12E9045AA55AA55AA55AA55AAAA
:100CE00055AA55AA55AA55AA55AA55AA55AA55AA0C
:100CF00055AA55AA55AA55AA55AA55AA55AA55AAFC
:100D000055AA55AA55AA55AA55AA55AA5582394495
:100D10008300000000000100000000FC0000000053
:100D200000E000000000040000000000FF000000E0
:100D300000004B00000000000000C40000000000A4
:100D4000007F00000000000000000000000089009B
:100D50000000000708F205AA55AA55AA55AA55AAE7
:100D600055AA55AA55AA55AA55AA55AA55AA55AA8B
:100D700055AA55AA55AA55AA55AA55AA55AA55AA7B
:100D800055AA55AA55AA55AA55AA55AA55A2491415
:100D9000E30000FE000000008000000100000000F1
:100DA000000A0000000000000000000047000000F2
:100DB000000000000000000000001F000000000014
:100DC000000200002000000000FF00000000000002
:100DD000000000C0388750AA55AA55AA55AA55AA9E
:100DE00055AA55AA55AA55AA55AA55AA55AA55AA0B
:100DF00055AA55AA55AA55AA55AA55AA55AA55AAFB
:100E000055AA55AA55AA55AA55AA55AA550AE11C8C
:100E10000300004900000000FF0000000000000087
:100E20000000000000800000000000000000000042
:100E3000000000FF000000000000000400000000AF
:100E4000000000000F000000009F000000000000F4
:100E5000000000C7289245AA55AA55AA55AA55AA26
:100E600055AA55AA55AA55AA55AA55AA55AA55AA8A
:100E700055AA55AA55AA55AA55AA55AA55AA55AA7A
:100E800055AA55AA55AA55AA55AA55AA55A04F1014
:100E9000E000000000000000A300000000000000CF
:100EA0000000000000BF0000000000000000E4009F
:100EB00000000027000000000000E000000000002B
:100EC00000FC000000000000007C0000000000FFAB
:100ED000000000C1229C41AA55AA55AA55AA55AAAC
:100EE00055AA55AA55AA55AA55AA55AA55AA55AA0A
:100EF00055AA55AA55AA55AA55AA55AA55AA55AAFA
:100F000055AA55AA55AA55AA55AA55AA55A2097473
:100F1000830000000000000000000000000000F856
:100F20000000000000F800000000000000004F007A
:100F300000000001000000000000FF0000000000B1
:100F400000270000000000800000000000000023D7
:100F5000000080413E8055AA55AA55AA55AA55AA17
:100F600055AA55AA55AA55AA55AA55AA55AA55AA89
:100F700055AA55AA55AA55AA55AA55AA55AA55AA79
:100F800055AA55AA55AA55AA55AA55AA558A25D093
:100F90000F000000007E00000000000000000004C0
:100FA0000000000000100000000000000000000031
:100FB000000000000000000000001400000000001D
:100FC000000000000000000F000000000000000E04
:100FD00000000F10A54A15AA55AA55AA55AA55AA48
:100FE00055AA55AA55AA55AA55AA55AA55AA55AA09
:100FF00055AA00000000003E5B4F5B3E3E6B4F6B0E
:101000003E1C3E7C3E1C183C7E3C181C577D571CE9
:101010001C5E7F5E1C00183C1800FFE7C3E7FF0062
:1010200018241800FFE7DBE7FF30483A060E2629B0
:10103000792926407F050507407F05253F5A3CE773
:101040003C5A7F3E1C1C08081C1C3E7F14227F2239
:10105000145F5F005F5F06097F017F006689956A04
:10106000606060606094A2FFA29408047E0408108F
:10107000207E201008082A1C08081C2A08081E10B8
:101080001010100C1E0C1E0C30383E3830060E3E70
:101090000E06000000000000005F000000070007CF
:1010A00000147F147F14242A7F2A122313086462F9
:1010B00036495620500008070300001C224100005A
:1010C00041221C002A1C7F1C2A08083E08080080B8
:1010D0007030000808080808000060600020100850
:1010E00004023E5149453E00427F40007249494951
:1010F000462141494D331814127F10274545453983
:101100003C4A494931412111090736494949364686
:101110004949291E00001400000040340000000866
:101120001422411414141414004122140802015909
:1011300009063E415D594E7C1211127C7F49494996
:10114000363E414141227F4141413E7F494949412B
:101150007F090909013E414151737F0808087F005A
:10116000417F41002040413F017F081422417F40E0
:101170004040407F021C027F7F0408107F3E4141B7
:10118000413E7F090909063E4151215E7F09192927
:1011900046264949493203017F01033F4040403F11
:1011A0001F2040201F3F4038403F63140814630352
:1011B000047804036159494D43007F4141410204D1
:1011C000081020004141417F0402010204404040D8
:1011D0004040000307080020545478407F284444CE
:1011E000383844444428384444287F3854545418E8
:1011F00000087E090218A4A49C787F0804047800E3
:10120000447D40002040403D007F102844000041C4
:101210007F40007C047804787C08040478384444D7
:101220004438FC1824241818242418FC7C080404CE
:1012300008485454542404043F44243C4040207C37
:101240001C2040201C3C4030403C44281028444C8A
:101250009090907C4464544C440008364100000057
:10126000770000004136080002010204023C2623F8
:10127000263C1EA1A161123A4040207A38545455B0
:10128000592155557941215454784121555478407C
:1012900020545579400C1E52721239555555593902
:1012A0005454545939555454580000457C41000257
:1012B000457D420001457C40F0292429F0F0282595
:1012C00028F07C545545002054547C547C0A097FF6
:1012D0004932494949323248484832324A4848300E
:1012E0003A4141217A3A42402078009DA0A07D39C0
:1012F000444444393D4040403D3C24FF2424487E42
:101300004943662B2FFC2F2BFF0929F620C0887E2E
:10131000090320545479410000447D413048484A33
:1013200032384040227A007A0A0A727D0D19317DE6
:101330002629292F28262929292630484D402038BA
:101340000808080808080808382F10C8ACBA2F1079
:101350002834FA00007B000008142A142222142AE0
:1013600014089500220095AA005500AAAA55AA556E
:10137000AA000000FF00101010FF00141414FF005A
:101380001010FF00FF1010F010F0141414FC0014E3
:1013900014F700FF0000FF00FF1414F404FC141401
:1013A00017101F10101F101F1414141F00101010FE
:1013B000F0000000001F101010101F10101010F08F
:1013C00010000000FF101010101010101010FF106F
:1013D000000000FF140000FF00FF00001F101700B6
:1013E00000FC04F414141710171414F404F400008F
:1013F000FF00F714141414141414F700F714141441
:10140000171410101F101F141414F4141010F010DF
:10141000F000001F101F0000001F14000000FC144B
:101420000000F010F01010FF10FF141414FF14103F
:1014300010101F00000000F010FFFFFFFFFFF0F092
:10144000F0F0F0FFFFFF0000000000FFFF0F0F0FA4
:101450000F0F38444438447C2A2A3E147E02020688
:1014600006027E027E0263554941633844443C04CF
:10147000407E201E2006027E020299A5E7A5991C47
:101480002A492A1C4C7201724C304A4D4D3030486A
:10149000784830BC625A463D3E494949007E0101C8
:1014A000017E2A2A2A2A2A44445F444440514A445D
:1014B0004040444A51400000FF0103E080FF00002B
:1014C00008086B6B083612362436060F090F060023
:1014D0000018180000001010003040FF0101001F2C
:1014E00001011E00191D1712003C3C3C3C0000008D
:1014F0000000D5F08D14A1C881CFD9F1AF20000232
:1015000008D4D205087F7F3E1C084120FE0105F16A
:10151000F1F111D1B1D111F15151515151515151FB
:101520005151515151510000FF00007F7F09090FB7
:1015300006007F7F19396F46007F7F49494141008E
:10154000266F49497B3200266F49497B32FF0000F4
:10155000FFFFFFFEFFFEFF0279CD95A5CD790111BA
:10156000111101F9F901010000FF00007F7F090955
:101570000F06007F7F40404040007C7E0B0B7E7C4E
:1015800000070F78780F0700000000000000FF0040
:10159000001F3F3F33333333333E36363E363E361D
:1015A0003E36363E36363E360000FF00003E7F4176
:1015B000417F3E007F7F0E1C7F7F00000000000007
:1015C0000000000000000000000000000000003FDC
:1015D000405040404078464141595941414141596C
:1015E00059414141414141414100007F0000010119
:1015F0007F7F0101007C7E0B0B7E7C007F7F0909D1
:101600000F06007F7F4949414100000000000000B3
:1016100049204C4F564520594F55204A4553534970
:1016200043412100204A265320464F5245564552F9
:101630002030392E30332E3136200048494748209B
:1016400053434F52453A0020413A43414E43454CA3
:10165000202020002020444F574E3A44454C2E0075
:10166000504155534500F8FCFCFC7878FC781C3858
:1016700078FCFCF850F8FCFC78F8FCFC6800FCFEF8
:10168000FFFFFFFFFFFEFC01030100000000000060
:10169000000000000000000000000000000000004A
:1016A0000103030303030100210A00F80848300086
:1016B000781008003048685000506868005068682A
:1016C000000000FC027A526202FC000001000000EF
:1016D000000000000000000000000000000000000A
:1016E00000000000000101010101000048494748D5
:1016F0002053434F52453A0053434F52453A004717
:10170000414D45204F564552007EFFFFFEE0FCFE56
:10171000FFFFC7FFFFFE7E3FFFFEFEFF3FFEFFFF16
:10172000FFFFB6FCFEFFFFFFFEFCFDFFFFFDFFFF1E
:10173000FCF8FCFFFFFEFCFEFFFDFFFFFC030707BC
:10174000030307070303070707030307070703014B
:10175000030707030707031A13007EFEC0C0007CBF
:10176000FE828282FE7C00063EF8F83E0600FEFE07
:10177000B6B60000FCFC0CCCFC3000FCFC00FCFC11
:10178000000078FCCC0C00FCFC60FCFC00000303B7
:10179000000103030001030303010003030301002D
:1017A00000030300030300FCFEFFFFFFFEFCFFFF3E
:1017B000FFFFFFFFFFFFFFFFFFFFFFFFFFFFFFFF39
:1017C000FFFFFFFFFFFFFFFFFFFF070F1F1F1F0FA1
:1017D00007072D00F402AA02F40000FF00AA00FF90
:1017E0000000FF00AA00FF0000FF00AA00FF0000A9
:1017F000FF00AA00FF000007080A080700307CFE6F
:10180000FCF8FCFCFEFFFEFCFCF8FCFE7C30020752
:101810000F0F1F3B1F0B030B1F3B1F0F0F07023048
:101820007CFEFCF8FCFCFEFFFEFCFCF8FCFE7C30C1
:10183000020F1F0B377B37030303377B370B1F0F59
:1018400002110F00304CE83008F01C861CF0083004
:10185000E84C3000000205000A110A0101010A11DA
:101860000A0005020000304CE83008F01C861CF02D
:101870000830E84C30000002090002310201010189
:10188000023102000902002E7F2E7F2E003E7F3F94
:101890000F3E7F7E7F3E7F7F2A7F7E7020002E7FDF
:1018A0002E7F2E2E7F2E7F2E003E7F3F0F3E7F7E8F
:1018B0007F3E7F7F2A7F7E7020002E7F2E7F2E1C12
:1018C00007002E002E0000003E0A02003E203E00CF
:1018D0003E2A003E20200000002E002E00002E0098
:1018E0002E0000003E0A02003E203E003E2A003E3E
:1018F00020200000002E002E00534849454C443A59
:101900000053434F52453A00000000000000000021
:10191000000000000000000000242A1200023E0225
:101920003C0A3C003E0A34023E0200000000000077
:101930000000000000000000000000000002070E90
:101940000E070200001F041F001F001E1119001FB8
:10195000041F000000121509000E1111000E110ED7
:10196000001F051A001F15000002070E0E070200D7
:10197000000000000000000000040E1C1C0E04000B
:1019800000242A1200023E023C0A3C003E0A3402B5
:101990003E020000040E1C1C0E04000000000000AB
:1019A000000000000000000000000000001F041FF5
:1019B000001F001E1119001F041F0000001215094E
:1019C000000E1111000E110E001F051A001F150048
:1019D0000000000000000000000000000000000007
:1019E00000000000000000000000000080808080F7
:1019F00080808080808080808080808080800000E7
:101A0000C0C0C0C040800000000000008080C0C096
:101A1000C0C0C0C08080000040C0C0C0C0C00000C6
:101A2000C0C0C0C0C040000080C0C0C0C0C0C0C0F6
:101A300000008080808080808080808080808080A6
:101A40008080808000000000000000000000000096
:101A50000000000000000000000000000000000086
:101A60000000000000000000000000000000000274
:101A7000020A2A2AAAAAAAAAAAAAAAAAAAAA000062
:101A8000FFFFFFFF00FE000000F8FEFFFF0F170B37
:101A90000B0B0B170FFFFFFEF801073FFFFFFEFECA
:101AA000FFFF3F0701E002FFFFFFFFF3F3F3F7F350
:101AB0000000AAAAAAAAAAAAAAAAAAAA2A2A0A0222
:101AC0000200000000000000000000000000000014
:101AD0000000000000000000000000000000000006
:101AE00000000000000000000000000000000000F6
:101AF00000000000000002020A0A0A2A2A2A000046
:101B0000071F1F3FBEBEBF824401070F1F5FBEBC41
:101B1000BCBCBCBE5F1F0F070100000419277F1F5C
:101B200007000000000F204F9FBFBFBCBCBC7D3C26
:101B300000002A2A2A0A0A0A020200000000000005
:101B40000000000000000000000000000000000095
:101B50000000000000000000000000000000000085
:101B6000000000008000C0008000000000000000B5
:101B70000000000000000000000000000000000065
:101B8000FEFEFEFE1E1E1EFEFCFCF00000FEFEFE23
:101B9000FE000000FEFEFEFE000000F0F8FCFEFE6F
:101BA0001E1E000000FEFEFEFE808000FEFEFEFE09
:101BB0000000000000000000000000000000000025
:101BC000000000000000008000C000800000000055
:101BD0000000000000000000FC7880C0C0C0800051
:101BE0004800FC004800FF004800FC0048000000DE
:101BF00000000000000000000000000000000000E5
:101C0000FFFFFFFF001F7FFFFFFBE100003FFFFF23
:101C1000FFE0E0E0FFFF7F3F0000F0E1E7FFFFFFB4
:101C20007F3E000000FFFFFFFF070700FFFFFFFFF1
:101C300000000000000000000000000000000000A4
:101C40000000004800FC004800FF004800FC00487D
:101C50000080C0C0C08078FCFFFEFFFFFFDFEFC048
:101C60003F00DF808AC0EFC08A80DF003F000000B5
:101C70000000000000000000000000000000000064
:101C80000105050504030001050505050402000022
:101C90000105050505040200000001050505050410
:101CA000020000000001050505040200010505050C
:101CB000040200000000000000000000000000001E
:101CC0000000003F00DF808AC0EFC08A80DF003F55
:101CD000C0EFDFFFFFFFFEFFFFFFFFFFFFAB548200
:101CE000786FDDF0BA2D272DBAF0DD6F7800000097
:101CF00000000000000000000000000000000000E4
:101D000000000000000000000000000000000000D3
:101D100000000000000000000000000000000000C3
:101D200000000000000000000000000000000000B3
:101D300000000000000000000000000000000000A3
:101D4000000000786FDDF0BA2D272DBAF0DD6F7836
:101D500007AFFFFFFFFFFFFFFFFFFFFFFFFFFFFEDC
:101D6000FDFAF4E9F5EBF3FBFDFDCEE0F0F8F8F851
:101D7000F8F0E0C0000000000000000000000000DB
:101D80000000000000000000000000000000000053
:101D90000000000000000000000000000000000043
:101DA0000000000000000000000000000000000033
:101DB000000000000000000000000000C0E0F0F89B
:101DC000F8F8F8F0E0CEFDFDF3EBF3E9F5EAF5FA0B
:101DD000FDFEFFFFFFFFFFFF70F8FCFEFFFFFFFEB1
:101DE000FEFFFFFFFEFCF87000000103070F1F3F1E
:101DF0003F1F0F0703010000000000F8FCFEFFFE7C
:101E0000FEFFFEFCF800000000000001070F1F3F6E
:101E10003F1F0F07030000000000000000FCFEFF52
:101E2000FFFEFC000000000000000000000F1F3F4C
:101E30003F1F0F0000000000000000F8FCFEFFFE46
:101E4000FEFFFEFCF800000000000003070F1F3F2C
:101E50003F1F0F070100000070F8FCFEFFFFFFFEB0
:101E6000FEFFFFFFFEFCF87000000103070F1F3F9D
:101E70003F1F0F0703010000100E00708874DAAADC
:101E80004A94140A0A8A748870000000000102054E
:101E90000B16150A05020100000000000000F804FE
:101EA000020404FA04F8000000000000000001062B
:101EB0000C18140B040300000000000000000000D8
:101EC000FCC2C2FC00000000000000000000000096
:101ED0000F1A1A0F00000000000000000000F804B4
:101EE000FA04040204F800000000000000000304EB
:101EF0000B14180C06010000000000708874DAAAA8
:101F00004A94140A0A8A74887000000000010205CD
:101F10000B16150A0502010000004F5054494D49A7
:101F2000534544000080C0E0F0F8FCFEFEFFFFFFD8
:101F3000FFFFFFFFFEFEFCF8F0E0C08000FEFFFFA9
:101F4000FFFFFFFFFFFFFFFFFFFFFFFFFFFFFFFFA1
:101F5000FFFFFFFFFFFE0003070F1FFFFFFFFFFF55
:101F6000FFFFFFFFFFFFFFFFFFFF1F0F0703000043
:101F7000000000000F1F3F3F3F3F3F3F3F3F3F3FBD
:101F80003F1F0F00000000003E7F3F1F3E7F3E7856
:101F900030387C78387C3C18387C7878FC7C381079
:101FA0000019280080402090C8E4F2F2F9F9F9F90C
:101FB000F9F9F9F2F2E4C89020408000FE0100FE39
:101FC000FF010000000001FFFFFF01000000000111
:101FD000FFFE0001FE0003040813E70E0EFEFE1FC5
:101FE000FFFFFF1FFEFE0E0EE713080403000000B4
:101FF0000000000F10202727202727272027272031
:10200000100F0000000000003E0A0E003E083000E5
:102010001028300038080010283000782810000000
:102020000080402090C8E4F2F2F9F9F9F9F9F9F9E1
:10203000F2F2E4C89020408000FE0100FEFFCFCF06
:10204000CFCFCFCFFFFFFFCFCFCFCFCFCFFFFE0080
:1020500001FE0003040813E70F0FFFFF1FFFFFFF40
:102060001FFFFF0F0FE7130804030000000000002C
:102070000F102027272027272720272720100F0091
:1020800000000000003E0A0E003E0830001028301C
:1020900000380800102830007828100000000000E8
:1020A0000000000000000000000000000000000030
:1020B0000000000000000000000000000000000020
:1020C0000000000000000000000000000000000010
:1020D0000000000000000000000000000000000000
:1020E00000000000000000000000000000000000F0
:1020F00000000000000000000000000000000000E0
:1021000000000000000000000000000000000000CF
:1021100000000000000000000000000000000000BF
:1021200000000000000000000000000000000000AF
:10213000000000000000000000000000000000009F
:10214000000000000000000000000000808080808F
:10215000808000000000808080808080808000007F
:10216000000000000000000000000000000000006F
:10217000000000000000000000000000000000005F
:10218000000000000000000000000000000000004F
:10219000000000000000000000000000000000003F
:1021A000000000000000000000000000000000002F
:1021B000000000000000000000000000000000001F
:1021C000000000000000000000020A2AA8A38F3FC0
:1021D000FFFFFEF08000FFFFFFFFFFFFFF07000093
:1021E0000000000080808080C0C0008000000000EF
:1021F00000000000000000000000000000000000DF
:1022000000000000000000000000000000000000CE
:1022100000000000000000000000000000000000BE
:1022200000000000000000000000000000000000AE
:10223000000000000000000000000000000000009E
:1022400000000000000000000000000000020A0A78
:1022500028A3871F7FFCFFFFFFFFFF7F01F0F8FC33
:10226000FE06A30B07073F0F230802000000000033
:10227000000000000000000000000000000000005E
:10228000000000000000000000000000000000004E
:10229000000000000000000000000000000000003E
:1022A000000000000000000000000000000000002E
:1022B000000000000000000000000000000000001E
:1022C000000000000000000000000000000000000E
:1022D0000000020A28A1871F7FFF1F0080F1F3F38F
:1022E000636322B21E2028000000000000000000EE
:1022F00000000000000000000000000000000000DE
:1023000000000000000000000000000000000000CD
:1023100000000000000000000000000000000000BD
:1023200000000000000000000000000000000000AD
:10233000000000000000000000000000000000009D
:10234000000000000000000000000000000000008D
:10235000080808C808884A8A48480888498908CA75
:10236000480948C8480808080000000000000000AC
:10237000000000000000000000000000000000005D
:10238000000000000000000000000000000000004D
:10239000000000000000000000000000000000003D
:1023A000000000000000000000000000000000002D
:1023B000000000000000000000000000000000001D
:1023C000000000000000000000000000000000000D
:1023D00000000000030000020303000102010003EB
:1023E00001000003000000000000000000000000E9
:1023F00000000000000000000000000000000000DD
:1024000000000000000000000000000000000000CC
:1024100000000000000000000000000000000000BC
:1024200000000000000000000000000000000000AC
:10243000000000000000000000000000000000009C
:10244000000000000000000000000000000000008C
:10245000000000000000000000000000000000007C
:10246000000000000000000000000000000000006C
:10247000000000000000000000000000000000005C
:10248000000000000000000000000000000000004C
:1024900000000000000000000000000000080B0029
:1024A00002020200000904000001020200000524EB
:1024B0000010010524010101042402060524060080
:1024C000010705810310004009040100020A000011
:1024D00000070502024000000705830240000004D7
:1024E00003090412010002EF02014041233680007B
:1024F000010102030141726475696E6F204C4C4307
:102500000041726475696E6F204C656F6E61726414
:102510006F00212411241FBECFEFDAE0DEBFCDBF54
:1025200011E0A0E0B1E0E4EEF3E602C005900D9208
:10253000A234B107D9F726E0A2E4B1E001C01D92B0
:10254000AA39B207E1F712E1CAE8D2E104C0219743
:10255000FE010E94E531C938D107C9F70E947324F2
:102560000C94F0310C940000809158010895480FAC
:10257000592F511D1416150674F58038910559F11F
:1025800097FF02C090E080E04138510514F040E828
:1025900050E0481BFB01E770FF2721E030E001C05D
:1025A000220FEA95EAF72095FB0133E0F595E795D0
:1025B0003A95E1F7F695FE2FEE27F795E795E80FA8
:1025C000F91FED56FE4F415030F08191DF01119718
:1025D00082238C93F8CF089580E0E3E9F1E0811144
:1025E0008FEF002481938193819381930394D1F79A
:1025F0000895E3E9F1E080E0A0E0B8E000800EBCDF
:102600008111012C1197A0FDFDCF0192B9F70DB4F6
:102610000895AC0130918206E2E1F6E090E020E01E
:10262000391769F0A481B581A417B50729F475831A
:102630006483213021F021E09F5F3796F1CF089528
:102640002F923F924F925F926F927F928F929F92C2
:10265000AF92BF92CF92DF92EF92FF920F931F93B0
:10266000CF93DF93A22EB12C9501280F391F12169C
:1026700013060CF099C09B01200F311D1216130692
:102680000CF092C0603471050CF08EC09B0177FF96
:1026900004C022273327261B370B27703327DB0183
:1026A00077FD1796E3E0B595A795EA95E1F777FFF3
:1026B00007C0119768E070E0FB01E21BF30B9F017C
:1026C000E02EE694E694E694F12C077019F0FFEF03
:1026D000EF1AFF0A8A01AD015695542F44275795EA
:1026E0004795480F591F4D565E4FBD01E8E0F0E099
:1026F0002F01421A530A6F3FEFEF7E070CF444C0DC
:102700006C01D0E0C0E03A01E0E86E0E711CD7FC2D
:102710002FC06F3F760709F45AC0F801EC0FFD1F78
:10272000E4914A018C0E9D1EF0E01F01022E01C0B3
:10273000220C0A94EAF7F401308023282082211524
:102740003105B1F06730710599F0F801EC0FFD1F0C
:10275000E49143018C0E9D1EF0E01F01042C02C089
:10276000359427940A94E2F7F401308023282082DC
:102770002196FFEFCF1ADF0ACA15DB052CF4F0E82B
:10278000CF16D10409F0C3CF6F5F7F4F0A0D1B1D19
:1027900040585F4FFB01EA1BFB0BEE15FF0524F4CD
:1027A0006830710509F0A7CFDF91CF911F910F918C
:1027B000FF90EF90DF90CF90BF90AF909F908F9061
:1027C0007F906F905F904F903F902F9008952115CC
:1027D000310509F0BACFCCCF90918D06982329F41A
:1027E00090918C06982381E009F480E00895FC0123
:1027F00090918206903179F027E0299FD001112431
:10280000AE5EB94F01900D922A95E1F79F5F9093CC
:10281000820681E0089580E00895FC018091920194
:10282000882311F13FB7F89482E08093E90020916A
:10283000F200822F90E01816190614F481E090E05F
:10284000882339F0289844E6409391014091F100A3
:102850004083222339F02091F200211103C02BE69E
:102860002093E8003FBF08958FEF9FEF08952FB7A3
:10287000F89483E08093E9009091E800892F8072BA
:1028800095FF04C09091F20080E4891B2FBF08954A
:102890008091890181110DC082E08093850184E0DF
:1028A00080938601109288011092870181E08093C5
:1028B000890185E891E00895CF93DF931F92CDB70A
:1028C000DEB76983DC01ED91FC910280F381E02D9C
:1028D00041E050E0BE016F5F7F4F09950F90DF919F
:1028E000CF91089583E08093E9008091F2008823DE
:1028F00019F08AE38093E80008950E94371490E06D
:102900000895CF93DF931F92CDB7DEB7FC01848586
:10291000958597FD08C02FEF3FEF358724870F90EF
:10292000DF91CF910895CE0101960E940D14019779
:1029300019F4898190E0F3CF8FEF9FEFF0CF0F93E1
:102940001F93CF93DF931F92CDB7DEB78C01FC01AD
:102950008485958597FF0BC0CE0101960E940D14CA
:10296000019771F4898190E0F80195878487F801D7
:10297000848595850F90DF91CF911F910F910895D8
:102980008FEF9FEFF1CFFC018485958597FD0BC0FC
:102990009FB7F89482E08093E9008091F2009FBF96
:1029A00090E0019608959FB7F89482E08093E90043
:1029B0008091F2009FBF90E0089540917F01509177
:1029C000800120917D0130917E0142175307B4F4BC
:1029D0009091E8009570E1F39091E80092FD19C0A4
:1029E0008093F10080917F019091800101968F7317
:1029F0009927892B19F48EEF8093E80080917F014D
:102A00009091800101969093800180937F0181E0F5
:102A1000089580E00895EF92FF920F931F93CF9354
:102A2000DF93F82E192FE62E042F81E0860F880FF2
:102A30000E94DD1483E00E94DD14CF2DD12FEC0E17
:102A4000FD2EF11CCE15DF05B9F007FF13C0FE0106
:102A500084910E94DD14182F80E00E94DD148123F0
:102A600021968111EFCFDF91CF911F910F91FF90B0
:102A7000EF9008958881EDCF81E0F5CFDF92EF925E
:102A8000FF920F931F93CF93DF93D82E8A01EB0110
:102A90007B01E40EF51ECE15DF0559F0D7FE12C0FE
:102AA000FE0184910E94DD1421968111F4CF0FEF75
:102AB0001FEFC801DF91CF911F910F91FF90EF9011
:102AC000DF9008958881EECF0F931F93CF93DF930C
:102AD0001F92CDB7DEB782E0898342E450E06DE912
:102AE00074E280E80E943E150E944814DC011296B0
:102AF0000D911C910115110589F0D801ED91FC9102
:102B00000280F381E02DBE016F5F7F4FC801099500
:102B100097FD04C0F80100851185ECCF89810F90E5
:102B2000DF91CF911F910F910895615030F0209166
:102B3000F100FC0120830196F8CF289884E6809369
:102B400091010895AF92BF92CF92DF92EF92FF92E0
:102B50000F931F93CF93DF936C017B018B01040FC5
:102B6000151FEB015E01AE18BF08C017D10759F061
:102B70006991D601ED91FC910190F081E02DC601A3
:102B80000995892B79F7C501DF91CF911F910F919D
:102B9000FF90EF90DF90CF90BF90AF9008953FB738
:102BA000F8948091540190915501A0915601B091F3
:102BB000570126B5A89B05C02F3F19F00196A11D0E
:102BC000B11D3FBFBA2FA92F982F8827BC01CD0177
:102BD000620F711D811D911D42E0660F771F881FD6
:102BE000991F4A95D1F708958F929F92AF92BF9205
:102BF000CF92DF92EF92FF926B017C010E94CF1582
:102C00004B015C01C114D104E104F104B9F00E944C
:102C1000CF15681979098A099B09683E73408105B7
:102C2000910580F321E0C21AD108E108F10888EE8D
:102C3000880E83E0981EA11CB11CE4CFFF90EF909A
:102C4000DF90CF90BF90AF909F908F9008958F921C
:102C50009F92AF92BF92CF92DF92EF92FF920F932B
:102C60001F93CF93DF936C017B018A018091100148
:102C7000882309F45CC080919201882309F457C02D
:102C80008091840180FF05C08091E0008260809384
:102C9000E000E801B12C8AEFA82E93E0892E2AE308
:102CA000922E209711F4BB20D9F10E943714811184
:102CB0000AC0AA94AA20D9F161E070E080E090E017
:102CC0000E94F415EECF8C171D0611F00CF08C2F1E
:102CD0009FB7F8948092E9002091E80025FD02C09A
:102CE0009FBFDFCF282F30E0C21BD30BF7018150ED
:102CF00020F041914093F100FACFE20EF31EBB2089
:102D000021F09092E800B12CEBCF8091E80085FD96
:102D1000E7CF9092E800BB24B394209709F3F3CF58
:102D20005D9884E680938301101611063CF081E0E3
:102D300090E0F6019383828310E000E0C801DF9108
:102D4000CF911F910F91FF90EF90DF90CF90BF90A8
:102D5000AF909F908F90089520914C01E0914A018F
:102D6000F0914B01CF01029690934B0180934A0161
:102D7000222319F08591949108958081918108957D
:102D8000CF92DF92EF92FF92CF93DF930E94AC1627
:102D9000811520E8920791F4809171008D7F8093D6
:102DA0007100109291004698479810924901DF9166
:102DB000CF91FF90EF90DF90CF90089521E0209386
:102DC0004901813020E8920751F4809147019091A8
:102DD000480190934B0180934A010E94AC1697FDE5
:102DE00005C020914601222309F454C020914501D9
:102DF000211150C021E020934D01EC01DF77209795
:102E000009F04BC081E080934E0146983FE9C32E04
:102E10003FE0D32EE12CF12CCAEFD0E0E091F30596
:102E2000F091F4050995811103C081E080934E0172
:102E300080914D01882329F080914E01882309F467
:102E40003FC047980E94AC160097F1F19C01DE014B
:102E50000E94B631DC01CB0129E0B595A795979585
:102E600087952A95D1F7109290002AE0209391003F
:102E7000D0929900C092980080934F019093500196
:102E8000A0935101B09352018091710082608093B0
:102E900071008DCF10924D01B0CF9E0150E040E007
:102EA00060E472E48FE090E00E94623169017A018F
:102EB00081E0C81AD108E108F10810924E01AECFA6
:102EC0004699BFCF479ABECF8FEF9FEFDC01CBCFA4
:102ED000EF92FF920F931F93DC01E1E7F0E0908106
:102EE0009D7F908310924C01E5EEF5E0F0934B014D
:102EF000E0934A01F0934801E0934701B183A08336
:102F000073836283558344833783268311870087C5
:102F1000F386E2861F910F91FF90EF900C94C016FC
:102F20004F925F926F927F928F929F92AF92BF92D9
:102F3000CF92DF92EF92FF920F931F93CF93DF9385
:102F40004C015901FC2DC02FD0E0CE01880D991DF8
:102F5000181619060CF06CC020E8821691040CF0CB
:102F600067C09B012E0D311D121613060CF060C0B8
:102F7000603471050CF05CC04115510509F458C06E
:102F8000E62FE770FE2EDB0177FD179633E0B5954F
:102F9000A7953A95E1F73A2F77FF04C0FF2011F08B
:102FA0003FEF3A0F662777276819790997FC02C027
:102FB00070E060E0803891050CF44BC090E89819FF
:102FC000961BA32F032E000CBB0B1A2F10953F3F0F
:102FD0000CF010E021E08E2D877009F420E0E694DB
:102FE000E694E694E20EAE0DB11D19971CF028E0B0
:102FF000E22EE31AE11A310F20E83203D001112446
:10300000A80DB91DA60FB71F019F600D711D1124DA
:10301000460F571F0F2D0F2C000C110BF33009F426
:103020001CC1C8F4F13009F4D0C0F23009F47CC0FE
:10303000DF91CF911F910F91FF90EF90DF90CF9094
:10304000BF90AF909F908F907F906F905F904F90C8
:103050000895902FB5CFFA3FB1F1232F2E0DFB3FEE
:1030600039F7321729F3BD016D567E4FD12CC12C93
:10307000C91608F0A4C0FA01EC0DFD1DE491F0E0C2
:103080004F01002E02C0880C991C0A94E2F737FD0C
:1030900006C0FB018081E82CE0948E218083FF2014
:1030A00061F0373054F45B01F0E8AF0EB11CE92C4D
:1030B000E094F50180818E218083FFEFCF1ADF0A33
:1030C0006F5F7F4FD5CF232F2E0D321709F4B0CF6E
:1030D000BD016D567E4FD12CC12CC91608F069C0B8
:1030E000FA01EC0DFD1DE491F0E04F01002E02C04D
:1030F000880C991C0A94E2F737FD04C0FB0180811B
:1031000088298083FF2051F0373044F45B01F0E8D8
:10311000AF0EB11CF501808189298083FFEFCF1AA2
:10312000DF0A6F5F7F4FD9CF6FEF70E00F2C02C0C7
:10313000660F771F0A94E2F760957095772E232F1C
:103140002E0D321709F474CFFD01ED56FE4F6F01BD
:10315000B12CA12CA91638F5FA01EA0DFB1DE4915A
:10316000F0E02F01002E02C0440C551C0A94E2F737
:1031700037FD05C0F6018081862384298083FF20E6
:1031800059F037304CF44601F0E88F0E911CF401F1
:103190008081872185298083FFEFAF1ABF0A8FEFD7
:1031A000C81AD80AD7CF3F5F4C0F5D1FA058BF4F3A
:1031B000C8CF3F5F4C0F5D1FA058BF4F86CF3F5F0A
:1031C0004C0F5D1FA058BF4F4CCF6A0D7B1D232FA6
:1031D0002E0D321709F42CCFFD01ED56FE4F6F0175
:1031E000B12CA12CA91688F5FB01EA0DFB1D8490DA
:1031F000912C002E02C0880C991C0A94E2F780944E
:103200009094FA01EA0DFB1D6490712C002E02C00F
:10321000660C771C0A94E2F737FD05C0F601808141
:10322000882186298083FF2049F037303CF4F6015D
:10323000E058FF4F8081892187298083FFEFAF1AF3
:10324000BF0A8FEFC81AD80ACDCF3F5F4C0F5D1F62
:103250006C0F7D1FA058BF4FBCCFC92ED12CFA01D7
:10326000E60FF71FAD56BE4F00E810E00C191D0920
:10327000CC19DD09BE01660F771F41E050E06A01FD
:103280000F2C01C0CC0C0A94EAF7592F2E2D792E61
:10329000CF93DF93ED01EF96EF9622968590A59060
:1032A000FF2059F08C9C4001AC9C500137302CF42D
:1032B000E880B094EB20E928E99233233AF0EC90CF
:1032C000A094EA20E828ED920C94671911965A957B
:1032D00029F72A9551F0572D33951124E60FF11D4A
:1032E000A00FB11DC00FD11DD9CFDF91CF911124F7
:1032F0009FCECF92EF920F93FA0104913196E49012
:103300004E5F5F4F22E0C22E30E020E00E94901717
:103310000F91EF90CF900895CF92DF92EF920F939D
:10332000CF93DF93EC01FA0184913196E4914E5FE3
:103330005F4F011102C0EE2011F1CC24C394D12CB7
:103340009E2F977011F4D12CC12CAE2FA695A69567
:10335000A695AC0DBD2DB11D8A9F60018B9FD00C31
:103360001124EC9CD001ED9CB00D11242A0F3B1FC1
:103370000C9DD0010D9DB00D11244A0F5B1FCC2474
:10338000C394EE2E082FCE010E949017DF91CF91AB
:103390000F91EF90DF90CF9008952D9A0895BC0182
:1033A00090E080E00C94F4158FB18095807F669B4F
:1033B00088601C9B846008955C988EBD00000DB4ED
:1033C00007FEFDCF5C9A089580389105B8F460340B
:1033D0007105A0F420E191E061FD94E060FD990F9A
:1033E00062FD9295687F269FD0011124A80FAD56EB
:1033F000BE4F8C9140FF03C0892B8C93089590950C
:103400008923FBCFAF92BF92CF92DF92EF92FF92D0
:103410000F931F93CF93DF935B01EC016C01C40EFC
:10342000D11C8B01020F111DCC15DD05ACF475010B
:10343000C8010134110514F080E490E0E816F906A3
:103440004CF440E0B701CE010E94E4198FEFE81A76
:10345000F80AEECF2196E8CFDF91CF911F910F911F
:10346000FF90EF90DF90CF90BF90AF9008959F9224
:10347000AF92BF92CF92DF92EF92FF920F931F9382
:10348000CF93DF938C01942E6B01C81AD90AD7FE13
:1034900003C0D194C194D1088FEF061717070CF41D
:1034A00081E0C0E4D0E0F12CE12CA82E880FBB080D
:1034B000492DB801C7010E94E419CC19DD09D7FFD5
:1034C00004C00A0D1B1DC058DF4F8FEFE81AF80A21
:1034D00081E8E816F10461F7DF91CF911F910F9118
:1034E000FF90EF90DF90CF90BF90AF909F900895A6
:1034F0002F923F924F925F926F927F928F929F9204
:10350000AF92BF92CF92DF92EF92FF920F931F93F1
:10351000CF93DF93CDB7DEB72A970FB6F894DEBF0F
:103520000FBECDBF9A8389836A3061F5DC01559661
:103530008C91B8E08B9F90011124E981FA818189F7
:103540009289820F931F928B818B108A178681E05C
:1035500090E02A960FB6F894DEBF0FBECDBFDF9184
:10356000CF911F910F91FF90EF90DF90CF90BF9080
:10357000AF909F908F907F906F905F904F903F9013
:103580002F9008956D3019F329813A813A87298760
:10359000D9011F96AD90BC90B0E8AB16B1040CF009
:1035A0007BC0F901C188D288F0E4CF16D1040CF0B9
:1035B00073C0D90155966C90559745E09501649E6E
:1035C000200D311D1124121613060CF065C0262C97
:1035D000312C910153E0220F331F5A95E1F72C0D46
:1035E0003D1D121613060CF057C05496BC91BB83B8
:1035F000E985FA85F389FC83649FB00111249B015E
:103600002E50304F3A832983712CE981FA818491BD
:10361000F5E07F1201C080E0460138E0532E282FEC
:1036200030E03E832D834C8080FF4B80411004C0EE
:103630003B818C813817E1F010E000E00615C0F402
:10364000D501A00FB11FB887AF83F12CE12CE61490
:1036500060F4B701680D791D442D8F8198850E9413
:10366000E419BFEFEB1AFB0AF2CF0F5F1F4FE6CF53
:103670008D819E81959587955A94820C931C51104B
:10368000CECF7394E981FA813196FA83E983A20C53
:10369000B31CF6E07F12B9CFA985BA8555962C9157
:1036A0005597422F50E01F968D919C91B6E02B9F2D
:1036B000800D911D1124E985FA85908B87872689D5
:1036C000222309F444CF6AEF64039001659F300D13
:1036D000112420583F4F281739070CF038CFDF014D
:1036E0000190F081E02D0190F081E02D6AE0CD01A4
:1036F00009952DCF0F931F93CF93DF938C01D0E0CB
:10370000C0E0F801EC0FFD1F6491662341F083E8EF
:1037100096E00E94781A892B11F02196F2CFCE0103
:10372000DF91CF911F910F9108950895089590E032
:1037300080E00895CF93DF93FC019C012B5F3F4F06
:10374000CAE0D0E0CB01BE010E94D1318193E217E3
:10375000F307C1F7DF91CF9108956F927F928F9217
:103760009F92AF92BF92CF92DF92EF920F931F93EF
:10377000CF93DF9310914401C12F012E000CDD0B7C
:1037800000E420E840EF5BE0BE018DEF9FEF0E9478
:103790002013BE016054710920E840EF5BE08DEF1B
:1037A0009FEF0E942013D09143016D2E0D2E000C2F
:1037B000770880904201082C000C9908E12C00E069
:1037C0002EE53AE046E25BE0B301C4010E948C19A9
:1037D000C0910101AC2E0C2E000CBB08C090000162
:1037E0000C2C000CDD082CEC38E044E959E0B50164
:1037F000C6010E948C19B301605471092EE53AE0AC
:1038000046E25BE0C4010E948C19B5016054710965
:103810002CEC38E044E959E0C6010E948C19B30150
:10382000605C7F4F2EE53AE046E25BE0C4010E9417
:103830008C19B501605C7F4F2CEC38E044E959E00D
:10384000C6010E948C191F5F1134D4F410934401F7
:10385000DE5FD134C4F4D0934301CE5FC134B4F4FD
:10386000C0930101DF91CF911F910F91EF90DF90F5
:10387000CF90BF90AF909F908F907F906F90089562
:1038800010924401E5CF10924301E7CF109201015D
:10389000E9CF6F927F928F929F92AF92BF92CF9219
:1038A000DF92EF920F931F93CF93DF931091440118
:1038B000C12F012E000CDD0B00E420E84AEC54E09F
:1038C000BE018DEF9FEF0E942013BE01605471096D
:1038D00020E84AEC54E08DEF9FEF0E942013D09136
:1038E00043016D2E0D2E000C770880904201082CAC
:1038F000000C9908E12C00E02EE53AE046E25BE09E
:10390000B301C4010E948C19C0910101AC2E0C2E90
:10391000000CBB08C09000010C2C000CDD082CEC46
:1039200038E044E959E0B501C6010E948C19B301A1
:10393000605471092EE53AE046E25BE0C4010E9462
:103940008C19B501605471092CEC38E044E959E058
:10395000C6010E948C19B301605C7F4F2EE53AE0EE
:1039600046E25BE0C4010E948C19B501605C7F4FA8
:103970002CEC38E044E959E0C6010E948C191F5F25
:103980001134D4F410934401DE5FD134C4F4D093E5
:103990004301CE5FC134B4F4C0930101DF91CF91F4
:1039A0001F910F91EF90DF90CF90BF90AF909F90BD
:1039B0008F907F906F90089510924401E5CF109200
:1039C0004301E7CF10920101E9CFEF920F93DC01A1
:1039D0001496ED91FC913297E730F105C0F4ED506B
:1039E000F34E0C94E531231DFA1C0A1D0F1D141D06
:1039F000191D1E1D25E332E048E454E0FC01068158
:103A000062817381E02E808191810E948C190F91D7
:103A1000EF9008952DEB31E04EEC53E0EFCF2FE423
:103A200031E04EE553E0EACF2FEF30E04CE053E0D9
:103A3000E5CF2FEA30E04AEB52E0E0CF2CEA30E06D
:103A400045EB52E0DBCF28ED3DE148E75EE1D6CF24
:103A5000CF93DF93C0E0D7E080918206C81748F487
:103A6000CD9FC00111248E5E994F0E94E51CCF5F4F
:103A7000F3CFDF91CF910895EF92FF920F931F93B1
:103A8000CF9310E000E080E8E82EF12CC0917C019B
:103A90004C2FB80190E080E00E94B712B8016F5F30
:103AA0007F4F4C2FC7018C1B91090E94B7120E5FEC
:103AB0001F4F0034110551F781E0C7FD04C0CF5FEF
:103AC000C0937C0180E0CF911F910F91FF90EF9008
:103AD0000895EF92FF920F931F93CF9310E000E0B1
:103AE00080E8E82EF12CC0917C014C2FB80190E0C9
:103AF00080E00E94B712B8016F5F7F4F4C2FC70163
:103B00008C1B91090E94B7120E5F1F4F00341105E4
:103B100051F781E0CC2321F0C450C0937C0180E0B8
:103B2000CF911F910F91FF90EF9008958F929F92E8
:103B3000AF92BF920F931F93CF93DF93CDB7DEB7B2
:103B4000A1970FB6F894DEBF0FBECDBF19A24230C9
:103B500008F44AE08E010F5D1F4F842E912CB12C8A
:103B6000A12CA50194010E949431E62FB901CA014C
:103B7000EA3044F5E05DD801EE938D01232B242B30
:103B8000252B79F790E080E0109769F0FD01019016
:103B90000020E9F73197AF014A1B5B0BBD0183E8B9
:103BA00096E00E94A215A1960FB6F894DEBF0FBE54
:103BB000CDBFDF91CF911F910F91BF90AF909F909C
:103BC0008F900895E95CD7CFEF92FF920F931F93E8
:103BD00080918A0690918B064E9690935F01809318
:103BE0005E012D9884E6E82EF12C07E114E024E62E
:103BF00030E043E952E064E670E088E891E00E943A
:103C0000681704EC10E024E630E04AE451E064E692
:103C100070E08BE092E00E9468171F910F91FF9077
:103C2000EF9008950C944C310E94EB31CF92DF92CB
:103C3000EF92FF926B017C01C114D104E104F10405
:103C400041F00E94F430A70196010E9462316B019D
:103C50007C01C701B601FF90EF90DF90CF900895EF
:103C6000CF93DF93EC016AE070E080E090E00E9487
:103C7000161E625E7F4F8F4F9F4F609372016DE300
:103C800070E080E090E00E94161E665E7F4F8F4FCE
:103C90009F4F7983688384EE9FEF9B838A83DF91B4
:103CA000CF910895CF93DF93EC016AE070E080E05C
:103CB00090E00E94161E665F7F4F8F4F9F4F60936C
:103CC00073016DE370E080E090E00E94161E665E76
:103CD0007F4F8F4F9F4F7983688384EE9FEF9B8345
:103CE0008A83DF91CF9108952F923F924F925F92F6
:103CF0006F927F928F929F92AF92BF92CF92DF92FC
:103D0000EF92FF920F931F93CF93DF93D0E0C7E022
:103D100087E0382E9AE0C92ED12C25E0E22EF12C36
:103D200034EE432E55245A9443E0242E52E0652E5F
:103D3000712C67E0A62EB12C90918206D91708F05D
:103D40009FC10D2F10E0DC9FD0011124AE5EB94F52
:103D50001496ED91FC9115973297E730F10508F034
:103D600091C0EB54F14E0C94E531BC1E031F441F6F
:103D7000711FC81FE51FF91FC09FC001C19F900D93
:103D800011249C012E5E394F490120910301F40159
:103D900082819381820F911D27FD9A9501969383CD
:103DA000828381349105D4F062E370E080E090E09A
:103DB0000E94161E6054710981099109F4017383F0
:103DC00062836DE370E080E090E00E94161E665E04
:103DD0007F4F8F4F9F4FF4017183608380918A06DC
:103DE00090918B06B5010E94D131892B09F04AC010
:103DF000C09FF001C19FF00D1124EE5EF94F868146
:103E00008F5F8170C3C0C09FC001C19F900D1124FE
:103E10008C010E5E194FF801828193810197938383
:103E20008283843E9F4FF4F462E370E080E090E090
:103E30000E94161E6054710981099109F80173836B
:103E400062836DE370E080E090E00E94161E665E83
:103E50007F4F8F4F9F4FF80171836083758264821B
:103E6000168210C080918A0690918B06B7010E943D
:103E7000D131892B39F4F80186818F5F622D0E9440
:103E8000C5319683DF5F58CFC09FC001C19F900DA1
:103E900011249C012E5E394F490120910301F40148
:103EA00082819381820F911D27FD9A95813491051E
:103EB00044F49383828380918A0690918B06B701A4
:103EC00092CF538242826DE370E080E090E00E94E6
:103ED000161E665E7F4F8F4F9F4FF4017183608384
:103EE000EACFC09FF001C19FF00D1124EE5EF94FA3
:103EF000228133812F5F3F4F338322832134310569
:103F0000B4F1A2E1B6E080E0981709F4BBCF1496B3
:103F10004D915C9115974530510531F56D917C912E
:103F200011974081518164177507F1F412964D91F4
:103F30005C91139724173507B9F49150909382063A
:103F4000839D900111242E5E394F891708F09ACF76
:103F500047E0F9013796D90101900D924A95E1F7B2
:103F60008F5F295F3F4FF1CF8F5F1796CDCF809145
:103F70008A0690918B06B7010E94D131892B09F0F6
:103F800081CF86818F5F843008F06ACF86837ACFB5
:103F900080917301811113C0C09FF001C19FF00D8A
:103FA0001124EE5EF94F828193818134910524F4CE
:103FB00001969383828303C0CD010E94521E80919B
:103FC0008A0690918B06B6010ECF80917201811105
:103FD000F6CFC09FF001C19FF00D1124EE5EF94FA6
:103FE00082819381813491051CF3CD010E94301EA2
:103FF000E6CFC09FF001C19FF00D1124EE5EF94F96
:104000008281938170911106A5EFB5E060E08D305B
:10401000910524F006979383828334CF761709F4B1
:1040200031CF14962D913C9115972830310579F4B4
:104030004D915C911197208131814217530739F4DA
:1040400012962D913C9113978217930719F06F5F89
:104050001796E4CF715070931106639DC00111242F
:104060008B509A4F671708F00DCF27E0FC01379669
:10407000DC0101900D922A95E1F76F5F0796F2CF70
:10408000DF91CF911F910F91FF90EF90DF90CF9034
:10409000BF90AF909F908F907F906F905F904F9068
:1040A0003F902F900895FF920F931F93CF93DF932C
:1040B000EC01F62E08811981C8010E944C31F816D6
:1040C00021F06F2DC8010E945431CE01DF91CF91B4
:1040D0001F910F91FF9008950F931F93CF93DF933C
:1040E00000D0CDB7DEB782E990E09A83898303E9F7
:1040F00015E0F8016081CE0101960E94532083E90A
:1041000090E09A838983F8016181CE0101960E9433
:104110005320C8010F900F90DF91CF911F910F9105
:1041200008951F920F920FB60F9211248F939F93B1
:104130008091E1009091E100937F9093E10083FFF3
:104140000FC01092E90091E09093EB001092EC0008
:1041500092E39093ED001092920198E09093F0001A
:1041600082FF22C093E09093E9009091F20099239E
:1041700019F09AE39093E80090918301992341F01C
:1041800090918301915090938301911101C05D9AA8
:1041900090919101992341F09091910191509093C8
:1041A0009101911101C0289A84FF18C08091E2000A
:1041B0008E7E81608093E2008091E1008F7E80930B
:1041C000E100809184018E7E8061809384019F91C3
:1041D0008F910F900FBE0F901F90189580FFF7CF13
:1041E0008091E2008E7E80618093E2008091E10008
:1041F0008E7E8093E100809184018E7E8160E5CF88
:104200001F920F920FB60F921124CF92DF92EF926E
:10421000FF920F931F932F933F934F935F936F934F
:104220007F938F939F93AF93BF93EF93FF93CF931E
:10423000DF93CDB7DEB76C97DEBFCDBF1092E9003C
:104240008091E80083FF25C068E0CE0145960E947A
:10425000951582EF8093E8008D8987FF39C0909192
:10426000E80090FFFCCF982F907609F034C19E892A
:104270004F89588D2F89F88C911131C0803861F5A4
:10428000809182018093F1001092F1008EEF809373
:10429000E8006C960FB6F894DEBF0FBECDBFDF917D
:1042A000CF91FF91EF91BF91AF919F918F917F91AE
:1042B0006F915F914F913F912F911F910F91FF90BF
:1042C000EF90DF90CF900F900FBE0F901F9018953A
:1042D0009EEF9093E800C7CF1092F100D5CF9130B8
:1042E00059F48111D3CF4130510581F6809182017B
:1042F0008D7F80938201CACF933049F48111C6CF5C
:104300004130510519F6809182018260F2CF9530DB
:1043100041F48091E80080FFFCCF20682093E30007
:10432000B5CF963009F0A9C00B8D1C8D22E01092FC
:10433000E9001092800110927F01F2122EC01092BB
:104340007E0110927D010E9464151F8299E099837D
:10435000FA8291E09E8390EA98879AEF998720915C
:104360007F0130918001275F3F4F3C832B838D83FA
:104370001092E9001092800110927F0110937E014B
:1043800000937D0149E050E0BE016F5F7F4F80E008
:104390000E943E150E94641579CF10937E01009310
:1043A0007D010E944814DC0112960D911C910115AB
:1043B000110509F451C1D801ED91FC910480F581FA
:1043C000E02DBE016B5E7F4FC8010995009709F093
:1043D0003EC1F80100851185EACFF3E0FF120EC05F
:1043E0008F89882309F440C0823061F440E860E19D
:1043F00081E095E20E940B15811148CF81E2809304
:10440000EB0047CF813029F440E86BE085EF94E280
:10441000F1CF833099F70E944814DC011296ED9099
:10442000FC908E010F5F1F4F6801E114F10479F0D9
:10443000D701ED91FC910680F781E02DB801C7010D
:104440000995080F111DF701E084F184EECFD80122
:104450001C92F60101900020E9F73197BF016C1919
:104460007D0940E0C601C6CF6FED74E2FB014491C7
:1044700050E080E80E943E1509CF973009F4BECF86
:10448000983021F481E08093F10000CF993009F059
:10449000FDCE837009F0B2CFE6E1F1E081E031E0DA
:1044A00096E32191222371F08093E9003093EB0091
:1044B000DF0111972C912093EC009093ED008F5F1A
:1044C000873079F78EE78093EA001092EA008F89AF
:1044D00080939201DBCE8B8D9C8D1092E90010921F
:1044E000800110927F0190937E0180937D01898DE0
:1044F000811192C08E899D89913A49F4813209F0E7
:104500007DCF47E050E069E071E080E0B3CF9132C9
:1045100009F074CF833269F48F89988DB0E0A0E000
:104520008093050190930601A0930701B0930801C1
:10453000ADCE803269F48091E80082FFFCCF67E065
:1045400089E091E00E9495158BEF8093E8009ECE64
:10455000823209F09BCE8F8980931001EEEFFFE746
:10456000859194918B3F9C4D51F1E0E0F8E0809172
:10457000090190910A01A0910B01B0910C01803BBF
:104580009440A105B105F1F48091100180FD1AC09D
:10459000EE3F8AE0F80789F587E797E79183808304
:1045A000809160008093810188E19BE00FB6F894D0
:1045B000A895809360000FBE9093600067CEEEEFE9
:1045C000FAE0D5CF808191818737974709F05ECE99
:1045D000A89580916000886180936000809181013E
:1045E00080936000EE3F2AE0F20789F08091FE0A96
:1045F0009091FF0A9183808349CE80819181873792
:10460000980751F29093FF0A8093FE0AC5CF10924B
:10461000FF0A1092FE0A3ACE0E944814DC0112965C
:104620000D911C910115110509F4E8CED801ED9109
:10463000FC910190F081E02DBE016B5E7F4FC801BF
:104640000995811123CEF80100851185EBCF18164D
:1046500019060CF41BCED2CEF1E0FF12BECE63EEF3
:1046600074E204CF1F920F920FB60F9211242F9372
:104670003F938F939F93AF93BF93809159019091F4
:104680005A01A0915B01B0915C013091530123E08C
:10469000230F2D3758F50196A11DB11D209353010D
:1046A0008093590190935A01A0935B01B0935C01F0
:1046B0008091540190915501A0915601B0915701FC
:1046C0000196A11DB11D8093540190935501A093B3
:1046D0005601B0935701BF91AF919F918F913F9138
:1046E0002F910F900FBE0F901F90189526E8230F63
:1046F0000296A11DB11DD2CF1F920F920FB60F923D
:1047000011242F933F934F935F936F937F938F93D6
:104710009F93AF93BF93EF93FF9380914F0190913D
:104720005001A0915101B0915201892B8A2B8B2B02
:1047300009F440C080914E0181110BC088B190E412
:10474000892788B980914D01882319F088B1805854
:1047500088B980914F0190915001A0915101B09181
:104760005201181619061A061B069CF480914F0177
:1047700090915001A0915101B09152010197A1096E
:10478000B10980934F0190935001A0935101B093D0
:104790005201FF91EF91BF91AF919F918F917F91C6
:1047A0006F915F914F913F912F910F900FBE0F909E
:1047B0001F9018950E94C016ECCF0F931F93CF93B4
:1047C000DF938C0181E090E00E94121E80FF31C0D7
:1047D0008AE090E00E94121E9FEF980F9E3F48F5DE
:1047E00022E330E0D80150963C932E931F9728E3A4
:1047F00030E052963C932E935197CBE0D0E0D80115
:10480000ED91FC910190F081E02D682FC801099590
:10481000CE010E94121E2196C131D10581F70E945E
:10482000F91288EE93E0DF91CF911F910F910C94D4
:10483000CF19DF91CF911F910F91089504970C9498
:10484000DD23E5E9F5E01382128288EE93E0A0E033
:10485000B0E084839583A683B78380E291E091835F
:1048600080838FEF9FEF95878487E3E8F6E01382DC
:1048700012821186128680E1838710861782158640
:1048800082E391E09183808380E491E09583848347
:10489000108A1786128A118A81E0838B148A858B8D
:1048A000168A84EB92E19093F4058093F30580E0FF
:1048B00090E89093F2058093F10546983E9A4798C8
:1048C0003F9A80E7E2E1F6E0DF011D928A95E9F781
:1048D00010928206E5EFF5E08CE1DF011D928A95EA
:1048E000E9F7148E0895CF93DF93CDB7DEB72C97F9
:1048F0000FB6F894DEBF0FBECDBF789484B582604A
:1049000084BD84B5816084BD85B5826085BD85B573
:10491000816085BD80916E00816080936E001092F1
:10492000810080918100826080938100809181006C
:1049300081608093810080918000816080938000FD
:1049400080919100826080939100809191008160BC
:10495000809391008091900081608093900080917D
:10496000C10084608093C1008091C1008260809307
:10497000C1008091C10081608093C1008091C3001B
:1049800081608093C3008091C00082608093C000EA
:104990008091C20081608093C20080917A0084601F
:1049A00080937A0080917A00826080937A0080916F
:1049B0007A00816080937A0080917A008068809389
:1049C0007A001092920110928201109284018091DB
:1049D000D70081608093D70080EA8093D80089B5A2
:1049E000806189BD89B5826089BD09B400FEFDCFB3
:1049F00061E070E080E090E00E94F4158091D800C2
:104A00008F7C80618093D8008091E000807F8093CC
:104A1000E0008091E1008E7E8093E1008DE0809344
:104A2000E200559A209A81EC80937C0085B1806FDA
:104A300085B984B1877E84B984B1876E84B95E9A62
:104A40005F988AB1806D8AB9769A6E9881B3806FCB
:104A500081BB899880B38D7080BB80E58CBD81E07F
:104A60008DBD85E090E00E94CF195F9A85E090E0CF
:104A70000E94CF195E985C98E2EFF4E184918EBDBC
:104A800000000DB407FEFDCF319604E1EF3FF007C3
:104A9000A9F75C9A81E88093640080916500816049
:104AA000809365000E94F9120E94D41902E010E080
:104AB00087FF10C085EA0E94DC192E982F982D9848
:104AC0008091640080628093640081E083BF889558
:104AD00013BEFCCF0E94D41982FF40C02D980E94C3
:104AE000D41984788438C1F40E94CD1988EC90E000
:104AF0000E94CF192F981A8309836FEFCE01019678
:104B00000E94532084EF91E00E94CF192F9A0E94B7
:104B1000D41984788438D9F30E94D41984718431EB
:104B2000C1F40E94CD1988EC90E00E94CF192E9814
:104B30001A83098360E0CE0101960E94532084EF1E
:104B400091E00E94CF192E9A0E94D4198471843169
:104B5000D9F388EC90E00E94CF19BCCF0E94CD1908
:104B600082E090E00E94121E882309F44EC03E9A13
:104B70003F9A81E0809358010E94EC1210929506B2
:104B800010929406109293061092920680E990E09B
:104B90000E94121E182F81E990E00E94121E1C3400
:104BA000C9F58A35B9F582E990E00E944C318093CD
:104BB000930583E990E00E944C318093940580E155
:104BC00080938E069E012F5F3F4F69018FB7F89447
:104BD0004091590150915A0160915B0170915C01C3
:104BE0008FBF80918F06342F381B832F90919006B2
:104BF000992389F1309391061092900680E090E01D
:104C0000892B21F30E940000E1CF109258013E98B9
:104C10003F98B2CF109294051092930580E990E0EE
:104C20009A8389836CE4CE0101960E94532081E926
:104C300090E09A8389836AE5CE0101960E94532011
:104C40006091930582E990E09A838983CE01019671
:104C50000E945320B4CF90918E06391740F48F5F95
:104C6000891760F681E083BF889513BEC7CF11E036
:104C70001093900640938F0680918A0690918B0640
:104C8000019690938B0680938A0680918C06809380
:104C90008D060E94D41980938C060E94EC1210920B
:104CA00095061092940610929306109292068091A7
:104CB0000401811116C000E420E84DE950E270E0E3
:104CC00060E090E080E00E9420130E943C1D882359
:104CD00029F080E880937C01109304010E94F9126E
:104CE0008DCF813009F04BC0E12C00E024E23FE1A0
:104CF00041EA5FE168E070E084E390E00E948C1993
:104D000085E290E0909393068093920681E390E091
:104D100090939506809394068AE19FE10E947A1B06
:104D200080918A0690918B0668E770E00E94D131ED
:104D3000892BD1F401E024E23FE141EA5FE168E040
:104D400070E084E390E00E948C1980917B018F5F7A
:104D500080937B01833040F080E880937C0182E087
:104D60008093040110927B0188E00E94EC13882359
:104D700019F082E0809304010E94691DAFCF823058
:104D800009F097C180918A0690918B066FE070E0E0
:104D90000E94D131892B41F480917A018F5F853057
:104DA00008F080C180937A0110917A01E12E012FE1
:104DB00028ED3DE148E75EE16BE170E087E190E0DE
:104DC0000E948C1928ED3DE148E75EE16BE170E05F
:104DD00089E590E00E948C1900E420E848ED59E153
:104DE00070E060E090E080E00E9420138091790103
:104DF0000EE024E340E759E1882311F048E059E14F
:104E00006FE270E086E290E00E9420130E94691D2C
:104E100088E00E94EC13882309F408C180916400A3
:104E20008E7F8093640080917A00806480937A0002
:104E300080917A0086FDFCCF009178001091790076
:104E40000E94CF15AB01BC01C801B0E0A0E0DC01BD
:104E5000992788278C019D01040F151F261F371FD6
:104E6000C901B8012091640021602093640061159C
:104E700071058105910511F00E944331109278016E
:104E80001092770181E08093030133E0B32EB0925A
:104E900002011092760110927501109274016AE07D
:104EA00070E080E090E00E94161E665F7F4F8F4F9B
:104EB0009F4F609373016AE070E080E090E00E9491
:104EC000161E665F7F4F8F4F9F4F6093720186E380
:104ED00090E090936C0180936B0182E390E090935B
:104EE0006E0180936D0181E090E09093700180935A
:104EF0006F01109271011092820662E370E080E00F
:104F000090E00E94161E2B013C016DE370E080E0F2
:104F100090E00E94161E665E7F4F8F4F9F4F7A83F0
:104F2000698310E4411A5108610871085C824B8260
:104F300022E030E03E832D831F82C6010E94F713DA
:104F40006DE370E080E090E00E94161E665E7F4F89
:104F50008F4F9F4F7A83698384EE9FEF9C838B836F
:104F600004E010E01E830D831F82C6010E94F71328
:104F70006DE370E080E090E00E94161E665E7F4F59
:104F80008F4F9F4F7A836983A4EEBFEFBC83AB83BF
:104F90001E830D831F82C6010E94F7136DE370E02C
:104FA00080E090E00E94161E665E7F4F8F4F9F4FFD
:104FB0007A836983E4EEFFEFFC83EB8386E090E085
:104FC0009E838D831F82C6010E94F7136DE370E0FC
:104FD00080E090E00E94161E665E7F4F8F4F9F4FCD
:104FE0007A83698304EE1FEF1C830B8387E090E0D4
:104FF0009E838D831F82C6010E94F71342E3E42E35
:10500000F12C05EA10E022E330E046E251E062E3F1
:1050100070E08BE092E00E94681780917901811125
:1050200044C0B092040180E880937C0180E80E9433
:10503000EC138823C1F0809179018823A1F022E349
:10504000E22EF12C05EA10E022E330E042E550E0E8
:1050500062E370E083E992E00E9468178091790131
:1050600081508093790180E10E94EC13882309F438
:1050700035CE80917901811131CE92E3E92EF12C68
:1050800005EA10E022E330E042E550E062E370E040
:1050900083E992E00E946817809179018F5F809385
:1050A00079011CCE10927A017FCE86E080930401B4
:1050B000BACF833009F03AC520907701309078015B
:1050C0000E94D41985FF0CC080916B0190916C01F6
:1050D000833191052CF0019790936C0180936B01C3
:1050E0000E94D41986FF0CC080916B0190916C01D5
:1050F0008C3591052CF4019690936C0180936B0193
:105100000E94D41987FF0CC080916D0190916E01AF
:105110008B3091052CF0019790936E0180936D0177
:105120000E94D41984FF0CC080916D0190916E0192
:10513000813391052CF4019690936E0180936D015B
:1051400088E00E94EC13882389F180911106843055
:1051500069F120916D0130916E0117E0819FF0019E
:105160001124EB50FA4F40916B0150916C01495F53
:105170005F4F51834083225031093383228328E0DB
:1051800030E03583248316828F5F8093110688EC8C
:10519000E82EF12C01E410E024E630E043E850E092
:1051A00062E370E08BE092E00E94681784E00E9466
:1051B000EC13882391F006E4E02EF12C07E215E0D1
:1051C00022E330E04BE452E066E470E086E091E0F8
:1051D0000E94681785E0809304018091620190919C
:1051E0006301009761F020918A0630918B062817A1
:1051F000390728F02E9A1092630110926201809173
:10520000600190916101009761F020918A063091D0
:105210008B062817390728F02F9A109261011092F7
:10522000600180915E0190915F01009769F020918B
:105230008A0630918B062817390730F00E94CD1965
:1052400010925F0110925E0180916401909165015E
:10525000009771F020918A0630918B062817390744
:1052600038F086EA0E94DC19109265011092640100
:1052700020917301222369F080918A0690918B0618
:105280006CE370E00E94D131892B19F421502093F6
:10529000730120917201222369F080918A06909116
:1052A0008B066CE370E00E94D131892B19F42150F8
:1052B00020937201912C17E0B12E88248394809161
:1052C0008206981608F065C2692C712CB69CF00114
:1052D000B79CF00D1124EE5EF94F448155814430A6
:1052E000510509F43AC10CF07DC04230510509F472
:1052F00088C0E090110625EF35E03C872B87A12C74
:10530000B69CF001B79CF00D1124EE5EF94FCF0171
:1053100004969A8789872F0192E0490E511CEA145E
:1053200009F435C2A985BA850D911C910430110587
:1053300009F4ADC10630110509F4B5C102301105FB
:1053400009F01EC2208131812F5F3F4FD2018D9124
:105350009C9101967DE0F72EBFE0B887AB85BC85B8
:105360004D915C91BA016D5F7F4F261737070CF0A6
:1053700007C2B8852B0F311D421753070CF000C22E
:10538000AB85BC8512962D913C91A9014A5F5F4F78
:10539000841795070CF0F4C18F0D911D281739075C
:1053A0000CF0EEC10230110509F489C10430110579
:1053B00009F4AEC120911106215020931106AB9C37
:1053C000C00111248B509A4FA21608F0E0C137E0BB
:1053D000FC013796DC0101900D923A95E1F7A39418
:1053E0000796F2CFCA010697029708F082CF208174
:1053F00031812D5F3F4F8281938103966CE07CE089
:1054000009C0208131812F5F3F4F828193810196B6
:105410006DE07FE0E0916B01F0916C01DF011B9684
:105420002A173B070CF065CF3696270F311DE21780
:10543000F3070CF05ECF20916D0130916E01F90100
:1054400039968E179F070CF054CF2C5F3F4F860F75
:10545000911D281739070CF04CCF9B9CC0011124DB
:105460008E5E994F4430510509F48EC00CF07FC018
:105470004230510509F03DCF80917701909178013C
:1054800005969093780180937701809175019091B2
:1054900076018230910510F482E090E002979093BB
:1054A000760180937501809174018F5F8093740100
:1054B0008F3004F1809102018F5F8093020180910F
:1054C0008A0690918B064E969093610180936001BD
:1054D0002F98B4E6EB2EF12C0AE914E124E630E033
:1054E0004DE45AE064E670E087E295E00E946817B8
:1054F0001092740162E370E080E090E00E94161E5A
:10550000B69C8001B79C100D11240E5E194F60549B
:10551000710981099109D80113967C936E931297B2
:105520006DE370E080E090E00E94161E665E7F4FA3
:105530008F4F9F4FF80171836083A0E5EA2EF12C15
:1055400003E912E020E530E04AE451E060E570E074
:1055500085EA90E00E946817CCCE208131812F5FD0
:105560003F4F8281938144966DE07DE053CF46307A
:10557000510509F46DC04730510509F0BACE0E94BB
:10558000301E8092690175C0809102018150809324
:1055900002018091750190917601049689329105FE
:1055A00008F04FC09093760180937501F4E6EF2EDA
:1055B000F12C01E410E024E630E043E850E064E63A
:1055C00070E086E091E00E94681787EA0E94DC198B
:1055D0002E9880918A0690918B069C012E5F3F4FFA
:1055E00030936501209364014E96909363018093FC
:1055F00062018091020187FF08C08092030184E06C
:105600008093040186EA0E94DC19B69C8001B79C55
:10561000100D11240E5E194FE4EEFFEFD801139622
:10562000FC93EE9312976DE370E080E090E00E94AF
:10563000161E665E7F4F8F4F9F4FD8016D937C93F0
:1056400058CE08E210E01093760100937501AECFBA
:1056500020917501309176012431310510F424E157
:1056600030E02451310930937601209375010E9476
:10567000521EE4E6EE2EF12C0AE914E124E630E0B5
:105680004DE45AE064E670E087E295E063CF208164
:1056900031812F5F3F4FD2018D919C9144966DE0F7
:1056A000F62EBDE05ACE208131812D5F3F4FD201D1
:1056B0008D919C9103965CE0F52EBCE04ECE8091DE
:1056C0007701909178018A30910510F48AE090E09A
:1056D0000A979093780180937701B69CF001B79C6C
:1056E000F00D1124EE5EF94F03E010E01583048302
:1056F00044E6E42EF12C06E011E024E630E046E03A
:1057000051E064E670E086E091E00E94681752CEB6
:1057100080917701909178010A9690937801809317
:105720007701B69CF001B79CF00D1124EE5EF94FA5
:1057300025E030E0358324836DE370E080E090E085
:105740000E94161E665E7F4F8F4F9F4F7A8369833C
:1057500084EE9FEF9C838B831E830D831F82C60183
:105760000E94F71334E6E32EF12C01E210E024E668
:1057700030E041E450E064E670E083E890E0C5CFBB
:10578000A394AB85BC851796BC87AB87C8CD939493
:1057900096CD0E94741E80918A0680FD06C080917D
:1057A00071018F5F81708093710180E047E090917B
:1057B0001106891738F5489FF0011124EB50FA4F74
:1057C000228133812D30310534F026503109338365
:1057D00022838F5FECCF915090931106849F9001AC
:1057E00011242B503A4F582F591798F767E0F901B9
:1057F0003796D90101900D926A95E1F75F5F295FB5
:105800003F4FF2CF80918A0690918B066CE370E057
:105810000E94D131892B49F48091750190917601D4
:105820000296909376018093750180917501909115
:105830007601899718F084E08093040180916901D2
:10584000882381F0009166011091670162E070E0A9
:1058500084E090E00E9409130F5F1F4F10936701CF
:10586000009366018091660190916701803E9140AE
:1058700078F064E070E082E090E00E9409131092FA
:10588000690110926701109266012E9A0E94CD194B
:1058900020918A0630918B06C9016EE170E00E946A
:1058A000D131892B41F480916A018F5F823008F0F9
:1058B0006CC080936A0180916901882341F1C9011C
:1058C00063E070E00E94D131892B61F4E12C00E0AB
:1058D00029E037E147E557E169E170E081E390E0D5
:1058E0000E948C1980918A0690918B0666E070E088
:1058F0000E94D131892B59F48091680191E0892768
:1059000080936801882309F443C02E982D980E9443
:10591000491CE12C00E027EA37E141ED57E16FE057
:1059200070E087E790E00E948C196090750170909C
:105930007601262D43E061E170E089E790E00E9466
:10594000021A0E94281D00917101A0906D01B09073
:105950006E0180906B0190906C01E02E2DEF37E18D
:1059600041E458E1B501C4010E948C1910E007E040
:1059700080911106181780F4109FC00111248B50DC
:105980009A4F0E94E51C1F5FF3CF10926A0193CFDC
:105990002E9A0E94CD19BBCFEFE16E16710488F0EC
:1059A00080916A0181110DC0B5016A5F7F4FE12CC2
:1059B00000E027E838E14FEB58E1C40104970E946A
:1059C0008C192AE040E870E060E090E080E00E94FE
:1059D000021A81E090E090939306809392061092D1
:1059E00095061092940681E099E10E947A1B85E267
:1059F00090E09093930680939206109295061092F1
:105A000094066091770170917801C6010E949A1BFB
:105A10008E010A5F1F4FD8016E918D0170E090E0FA
:105A200080E04AE00E94961DC016D106A1F78EE4E0
:105A300090E09093930680939206109295061092B0
:105A4000940689EF98E10E947A1B88E790E0909392
:105A50009306809392061092950610929406809079
:105A60000201082C000C9908AA08BB084AE0C501ED
:105A7000B401B7FE0DC06DE283E896E00E94781A8B
:105A800066277727CB01681979098A099B094AE0BB
:105A90000E94961D41E069E070E089E090E00E947C
:105AA000371A40E06AE070E08AE090E00E94371A1E
:105AB00080917701909178018C3DB5E09B0760F073
:105AC000ECED2E16E5E03E0608F008C982E0809372
:105AD00003010E94E41D02C98E37F4E09F0740F0E5
